:100000000C94DD000C9405010C9405010C94050181
:100010000C9405010C9405010C9405010C94050148
:100020000C9405010C9405010C94EA110C945C12DB
:100030000C9405010C9405010C9405010C94050128
:100040000C9405010C9405010C9405010C94050118
:100050000C9405010C9405010C9405010C94A0115D
:100060000C9405010C9405010C9405010C940501F8
:100070000C9405010C9405010C9405010C940501E8
:100080000C9405010C9405010C9405010C940501D8
:100090000C9405010C9405010C9405010C940501C8
:1000A0000C9405010C9405010C9405016C166F1657
:1000B0005E166216661690169016901673167716D0
:1000C0007B168116851690168B16080B000202020D
:1000D00001000904000001020200000524001001D3
:1000E0000524010101042402060524060001070578
:1000F000810310004009040100020A000000070506
:1001000002024000000705830240000004030904C6
:1001100012010002EF02014041233680000101027A
:10012000030141726475696E6F204C4C430041724B
:100130006475696E6F204C656F6E6172646F00004C
:1001400000000200090F0000030401000C00000081
:10015000000000000000000000000000000000009F
:100160000000250028002B002E00310000000000B8
:10017000240027002A002D00300004040404040396
:100180000405020202020403020202020606060637
:10019000060604040202020404040802011040805E
:1001A000401020408040800802040180402010025E
:1001B0000110801020404020191C11241FBECFEFD9
:1001C000DAE0DEBFCDBF12E0A0E0B1E0E8EFFDE392
:1001D00002C005900D92A637B107D9F723E0A6E734
:1001E000B2E001C01D92A038B207E1F710E0CDEDFA
:1001F000D0E004C02197FE010E94F11CCC3DD10744
:10020000C9F70E942B1A0C94FA1E0C940000E0917E
:100210007702F0917802908180917602809589230F
:10022000808308958EBD00000DB407FEFDCF8EB50E
:1002300008952091D60290E0233311F40C9601C06A
:100240004896982F990F990F990F80E00895089577
:10025000CF93DF931F92CDB7DEB76983DC01ED91B9
:10026000FC910280F381E02D41E050E0BE016F5F20
:100270007F4F09950F90DF91CF910895FC01818DFB
:10028000928D0895CF93DF931F92CDB7DEB7698328
:10029000DC01ED91FC910280F381E02D41E050E022
:1002A000BE016F5F7F4F09950F90DF91CF91089549
:1002B000FC01768765870895DC01ED91FC91068C41
:1002C000F78DE02D099591E089270895862F0895EF
:1002D00081E08627089521E0FC018485883008F0BC
:1002E00020E0822F0895FC01848595850895FC0106
:1002F0008489958908952DEA31E0FC0131832083BA
:10030000FB014089518962897389FC0142835383CF
:10031000648375830895DC01ED91FC91048CF58D67
:10032000E02D099480E00895089580E090E008951C
:10033000AF92BF92CF92DF92EF92FF920F931F93F3
:10034000CF93DF93CDB7DEB7AF970FB6F894DEBF8C
:100350000FBECDBF8C015B016A01CE0101960E94E8
:1003600085158DEAE82E81E0F82EFBA6EAA61CA6EC
:100370001DA61EA61FA680913C0390913D03A0914F
:100380003E03B0913F038EA39FA3A8A7B9A78B8379
:100390009C83AD83BE8318861F82AE01465D5F4F8E
:1003A000B501CE0101960E94DF1681309105B1F4AE
:1003B000D801ED91FC910488F589E02DFDA2ECA215
:1003C0008CA59DA5AEA5BFA58EA39FA3A8A7B9A7E1
:1003D000A601BE016C5D7F4FC8010995AF960FB6AF
:1003E000F894DEBF0FBECDBFDF91CF911F910F916B
:1003F000FF90EF90DF90CF90BF90AF900895E09185
:100400007702F0917802908180917602892B808327
:100410000895AF92BF92CF92DF92EF92FF920F9327
:100420001F93CF93DF9300D000D0CDB7DEB78C0100
:100430006B017A018091D6028333F1F45B0168018C
:10044000C40ED51E0C151D0509F460C00E940701DD
:100450008FE00E941201812F0E941201802F0E94C2
:1004600012010F5F1F4F80E00E941201F50181937E
:100470005F010E94FF01E6CF8433F1F40E9407017F
:1004800019830A838F2D8F778B83EC8264E070E071
:10049000CE0101960E94F60FA70160E070E0C60150
:1004A0000E94EC1EE114F10421F0B701C6010E9484
:1004B000F60F0E94FF012AC00E9407010F3F11059D
:1004C00009F020F419820A831B821DC017FD0BC09E
:1004D00019820A8333E0169507953A95E1F7007E75
:1004E00008600B8310C0C80126E0969587952A9571
:1004F000E1F719830A83807E0115104C10F48061A6
:1005000001C088618B8363E070E0C2CFC7010F90A8
:100510000F900F900F90DF91CF911F910F91FF904F
:10052000EF90DF90CF90BF90AF900895AF92BF92C1
:10053000CF92DF92EF92FF920F931F93CF93DF93AF
:10054000CDB7DEB728970FB6F894DEBF0FBECDBF8C
:100550008C017B016A018091D6028333E1F458015A
:10056000A40EB51E0A151B0509F48BC00E940701D5
:1005700080EF0E941201812F0E941201802F0E94A1
:1005800012010F5F1F4FF70181917F010E9412013D
:100590000E94FF01E7CF843321F50E9407011983F0
:1005A0000A838D2D80688B83CC8264E070E0CE015D
:1005B00001960E94F60F87010C0D1D1DE016F10635
:1005C00069F0F70181917F010E941201F7CFB60116
:1005D0006D5F7F4FCE0101960E94F60F0E94FF01D2
:1005E00050C00E9407010F3F110509F020F4198245
:1005F0000A8384E01CC017FD0BC019820A8333E014
:10060000169507953A95E1F7007E0C600B8310C0B4
:10061000C80126E0969587952A95E1F719830A8304
:10062000807E0115104C10F4846101C08C618B83B5
:1006300026E0C216D10498F420E0822F90E08C15B9
:100640009D0528F6E4E0F0E0EC0FFD1FE80FF91F30
:10065000D701A80FB91F8C9180832F5FEECF63E085
:1006600070E0CE0101960E94F60F87010C0D1D1D52
:10067000F70181917F010E941201E016F106C1F796
:10068000ADCFC60128960FB6F894DEBF0FBECDBF22
:10069000DF91CF911F910F91FF90EF90DF90CF905E
:1006A000BF90AF900895CF93DF931F92CDB7DEB781
:1006B000898341E050E0BE016F5F7F4F80E090E0B2
:1006C0000E9496020F90DF91CF910895DA019091E8
:1006D0007902E92FF0E0FE2FEE27E60FF71F90E0FA
:1006E000982F8827A901BD018E0F9F1F0C94960299
:1006F000CF93DF9300D0CDB7DEB779836A8322E052
:1007000030E0AE014F5F5F4F60E170E00E94660332
:100710000F900F90DF91CF910895CF93DF9300D08A
:10072000CDB7DEB779836A8322E030E0AE014F5F58
:100730005F4F64E070E00E9466030F900F90DF91BE
:10074000CF910895DA0190917902E92FF0E0FE2F20
:10075000EE27E60FF71F90E0982F8827A901BD012B
:100760008E0F9F1F0C9409027F928F929F92AF92DF
:10077000BF92CF92DF92EF92FF920F931F93CF938E
:10078000DF9300D0CDB7DEB7782E8B014A01590137
:1007900022E030E0AE014F5F5F4F64E270E00E9404
:1007A000A203E980FA80FE24EF24FE24E00EF11E6D
:1007B000970137704091D602072D10E0C8014333EE
:1007C00011F4089601C04096982F8827990F990F29
:1007D000990F820F931F473319F4A501B40120C06C
:1007E000A9014A0D5B1D41305840B8F360E078E044
:1007F0006B01C21AD30AA601B4010E949602A50198
:100800004C195D09B4016C0D7D1D8091D6028333B6
:1008100039F5085F1F4F902F990F990F990F80E0BE
:100820000E949602EA0CFB1CF982EA8222E030E088
:10083000AE014F5F5F4F64E270E0872D0E94660358
:100840000F900F90DF91CF911F910F91FF90EF903C
:10085000DF90CF90BF90AF909F908F907F90089542
:10086000005F1F4FD8CFEF92FF921F93CF93DF937C
:1008700000D0CDB7DEB7182F22E030E0AE014F5FD9
:100880005F4F60E270E00E94A203E980FA80FE24DC
:10089000EF24FE2422E030E0AE014F5F5F4F60E2C4
:1008A00070E0812F0E94A20389819A81982789276D
:1008B0009827E816F90611F07C01ECCF87E0189F25
:1008C000F0011124E257FD4FF582E482C7010F9039
:1008D0000F90DF91CF911F91FF90EF900895FF92BD
:1008E0000F931F93CF93DF9300D0CDB7DEB7F82ED1
:1008F00022E030E0AE014F5F5F4F66E270E00E94A1
:10090000A20309811A8110270127102722E030E075
:10091000AE014F5F5F4F66E270E08F2D0E94A20331
:1009200089819A819827892798270817190711F034
:100930008C01ECCFC8010F900F90DF91CF911F91E8
:100940000F91FF900895CF93DF931F92CDB7DEB73D
:1009500090917902292F30E0322F2227260F371F5E
:1009600090E0982F8827498341E050E0BE016F5FF7
:100970007F4F820F931F0E9496020F90DF91CF91BD
:100980000895CF93DF931F92CDB7DEB741E050E0DB
:10099000BE016F5F7F4F0E94090289810F90DF9136
:1009A000CF91089580E090E00C94C104CF93DF9341
:1009B00080E80E945303C4E1D0E00E94D20488235F
:1009C00051F061E070E080E090E00E94A516219770
:1009D000A1F780E001C081E0DF91CF91089590916F
:1009E0007902292F30E0322F2227260F371F90E07F
:1009F000982F8827820F931F0C94C10463E070E046
:100A00000C94EF0408958CBD9DBD0895FF920F9343
:100A10001F93CF93DF9300D0CDB7DEB7F82ECE0172
:100A200001960E945B1989819A810E9403058F2D8E
:100A30000E9433048C018F2D0E94FE04873129F01F
:100A40008C3119F080E090E001C0C8010F900F9048
:100A5000DF91CF911F910F91FF900895AF92BF92B8
:100A6000CF92DF92FF920F931F93CF93DF9300D02B
:100A7000CDB7DEB7F82E6B018A014130584010F037
:100A800000E018E0CE0101960E945B1989819A81ED
:100A90000E9403058F2D0E9433045C018F2D0E945C
:100AA000FE04873111F08C3121F4A016B10650F309
:100AB00002C000E010E0CE0101960E945B1989811E
:100AC0009A810E9403059801A60160E070E08F2DD5
:100AD0000E94B40360E270E08F2D0E94101062E06B
:100AE00070E08F2D0E94EF0484FD0EC08F2D0E94B8
:100AF000FE04882389F0CE0101960E945B1989814A
:100B00009A810E940305EBCF40E162E070E08F2DF7
:100B10000E94A304C80102C080E090E00F900F90F3
:100B2000DF91CF911F910F91FF90DF90CF90BF90F9
:100B3000AF9008951F93CF93DF9300D0CDB7DEB76A
:100B4000182FCE0101960E945B1989819A810E941B
:100B50000305812F0E94190127E0129FF001112443
:100B6000E257FD4F22813381377041E050E0BE01F2
:100B70006F5F7F4F820F931F0E94090289810F9040
:100B80000F90DF91CF911F910895FC01808D8830E7
:100B900040F4218D328D232B21F00E949A0590E0A4
:100BA00008958FEF9FEF0895FF920F931F93CF93B8
:100BB000DF9300D0CDB7DEB7282F87E0289F8001D4
:100BC000112402571D4FF80180819181009791F403
:100BD000F22ECE0101960E945B1989819A810E94B2
:100BE00003058F2D0E946F04F8012681821B910955
:100BF000918380830F900F90DF91CF911F910F9180
:100C0000FF9008954F925F927F928F929F92AF9242
:100C1000BF92CF92DF92EF92FF920F931F93CF93E9
:100C2000DF9300D0CDB7DEB7782E6B014A01A82E36
:100C3000B12C27E0829FC0011124AC0142575D4FC7
:100C40007A01FA0100811181CE0101960E945B199F
:100C500089819A810E9403050815190554F4872D8E
:100C60000E946F04F70126818C01021B1109118378
:100C700000830115110599F4872D0E94FE0484312B
:100C800009F480C0882309F47DC001E010E08C31B4
:100C900011F400E010E011950195110973C0801660
:100CA00091060CF4840187E08A9DF0018B9DF00D84
:100CB0001124E257FD4FE280F380C114D10459F1B1
:100CC0002701F7E05F22872D0E941901840D951DF1
:100CD0002091D602273319F4A801B6011AC0980151
:100CE000240D351D21303840B8F320E038E04901AB
:100CF00084189508A401B6010E9409022601480C37
:100D0000591C6801C818D908872D0E941901A6012D
:100D1000B2010E940902E00EF11E87E08A9DF001F7
:100D20008B9DF00D1124E257FD4FF382E28280810A
:100D30009181801B910B918380832681A801420FB2
:100D4000511D4A3F510510F4892BD9F487E08A9D43
:100D5000F0018B9DF00D1124E257FD4F1682F982B0
:100D6000EA8222E030E0AE014F5F5F4F68E270E060
:100D7000872D0E94660360E470E0872D0E941010AA
:100D800001C04683C8010F900F90DF91CF911F9152
:100D90000F91FF90EF90DF90CF90BF90AF909F901A
:100DA0008F907F905F904F900895CF93DF93FC01D9
:100DB000218D328D2115310519F48FEF9FEF11C070
:100DC000EC014217530708F0A901888D0E94020622
:100DD0001816190694F7298D3A8D281B390B3A8F6E
:100DE000298FDF91CF9108950F931F93CF93DF93B6
:100DF0001F92CDB7DEB7FC01218D328D232B61F020
:100E00008C0141E050E0BE016F5F7F4F808D0E94FA
:100E10000206181619061CF08FEF9FEF08C0F801A4
:100E2000818D928D0197928F818F898190E00F90B3
:100E3000DF91CF911F910F9108950F931F93CF933F
:100E4000DF93CDB7DEB728970FB6F894DEBF0FBE9D
:100E5000CDBF8C01D80159964D915C915A9741159F
:100E6000510551F0ED91FC91048CF58DE02D60E081
:100E700070E0C8010995EECFF801808D0E94D4057D
:100E8000892B51F148E050E0BE016F5F7F4FD801E0
:100E900058968C910E94020618161906FCF4D80187
:100EA000509684E0FE01319601900D928A95E1F70B
:100EB0008D8190E0982F88272E81820F911DF80157
:100EC000958B848B8F8190E0982F88272885820FBF
:100ED000911D928F818F02C080E090E028960FB61E
:100EE000F894DEBF0FBECDBFDF91CF911F910F9160
:100EF00008951F93CF93DF9300D0CDB7DEB7182F9F
:100F0000CE0101960E945B1989819A810E94030596
:100F100068E070E0812F0E9410100F900F90DF9119
:100F2000CF911F9108951F93CF93DF9300D0CDB73A
:100F3000DEB7182FCE0101960E945B1989819A8134
:100F40000E94030560E170E0812F0E9410100F9055
:100F50000F90DF91CF911F910895CF92DF92EF9282
:100F6000FF920F931F93CF93DF9300D000D000D058
:100F7000CDB7DEB78C016B017A01FC01808D883022
:100F800010F40E9493078DEA91E09A838983F60119
:100F900082819381A481B5818B839C83AD83BE8341
:100FA000B701CE0101960E949A14F801808F883013
:100FB00030F4F586E486128E118E81E001C080E067
:100FC00026960FB6F894DEBF0FBECDBFDF91CF914E
:100FD0001F910F91FF90EF90DF90CF900895CF93E6
:100FE000DF93FC01808D883028F4EF010E94930785
:100FF00088E0888FDF91CF9108951F93CF93DF937F
:1010000000D0CDB7DEB7182FCE0101960E945B1934
:1010100089819A810E940305812F0E94FE040F900E
:101020000F90DF91CF911F910895EF92FF920F9350
:101030001F93CF93DF937C018091D602833311F409
:10104000D4E001C0D8E006EC12E0C0E0F801219144
:1010500031918F01F701848195812817390729F093
:10106000CF5FDC13F3CF80E006C08C2F0E94FD071A
:101070008431B1F781E0DF91CF911F910F91FF9003
:10108000EF9008959F92AF92BF92CF92DF92EF922E
:10109000FF920F931F93CF93DF93EC016B0180912D
:1010A000D602811111C01B821A8288EE93E0A0E063
:1010B000B0E08C839D83AE83BF838FE191E0998301
:1010C000888388E08C8756C0833319F434E0932EEC
:1010D00002C028E0922E86ECE82E82E0F82E10E086
:1010E00098E0B92EA12CD7012D913C91F601848175
:1010F000958128173907F9F4812F0E94FD07082FE1
:10110000873111F08C3159F4812F0E94D405892B3D
:1011100071F40C3181F4812F0E9479070CC0843165
:1011200041F0811108C0D7011D921C9204C0B12E5C
:1011300002C0AA24A3941F5FB2E0EB0EF11C91122F
:10114000D2CFA11008C0D601ED91FC910084F185A9
:10115000E02DC60109951B821A8288EE93E0A0E07B
:10116000B0E08C839D83AE83BF838FE191E0998350
:101170008883BC8688EE93E09E878D87CE01DF91C1
:10118000CF911F910F91FF90EF90DF90CF90BF9084
:10119000AF909F9008958F929F92AF92BF92CF92FF
:1011A000DF92EF92FF920F931F93CF93DF93CDB710
:1011B000DEB72F970FB6F894DEBF0FBECDBF2091DC
:1011C000D602222369F1233319F434E0E32E02C05E
:1011D00028E0E22E8A015B016C01BC01CE01019680
:1011E0000E94420886EC882E82E0982EF12CF401B1
:1011F000219131914F01F60184819581281739079A
:1012000051F48F2D0E94FD07873129F4A801B50103
:101210008F2D0E942E05F394EF10E9CFC80102C074
:1012200080E090E02F960FB6F894DEBF0FBECDBFE2
:10123000DF91CF911F910F91FF90EF90DF90CF90B2
:10124000BF90AF909F908F9008958F929F92BF9282
:10125000CF92DF92EF92FF920F931F93CF93DF9382
:10126000CDB7DEB72A970FB6F894DEBF0FBECDBF5D
:101270009091D602911102C088E092C0933319F088
:1012800028E0B22E02C094E0B92E6B01082FCE01E7
:1012900001960E945B1989819A810E9403059E0133
:1012A0002F5F3F4F7901490110E0812F0E94FE041A
:1012B000F40181934F018823B9F01F5FB112F5CF7C
:1012C00010E0F70191917F019D3149F0983139F09B
:1012D0009A51923020F01F5FB112F3CFCDCF60E171
:1012E00070E0812F0E941010E12EF12CF701EE0F1B
:1012F000FF1FEA53FD4F1182108283EE93E00197A6
:10130000F1F7402F60E070E0812F0E94A3044FEFBF
:1013100062E070E0812F0E94A304C114D10411F097
:10132000B60113C080910D0190910E0101968115B7
:10133000F0EC9F0710F480E090EC90930E01809306
:101340000D0160910D0170910E01812F0E948D039E
:1013500061E070E0812F0E94101027E02E9DC001F7
:101360002F9D900D11249C0122573D4F7901F901C9
:101370001182108222E030E0AE01475F5F4F68E2E9
:1013800070E0812F0E94A20389859A85982789277A
:101390009827F70193838283168215821482812F06
:1013A0002A960FB6F894DEBF0FBECDBFDF91CF9166
:1013B0001F910F91FF90EF90DF90CF90BF909F9083
:1013C0008F9008950F931F93CF93DF93EC018B01C0
:1013D000888D883010F40E949307B80182E00E9443
:1013E0002509888F883030F41D870C871A8E198E56
:1013F00081E001C080E0DF91CF911F910F910895AE
:101400007F928F929F92AF92BF92CF92DF92EF9294
:10141000FF920F931F93CF93DF9300D0CDB7DEB72A
:101420007C014B01742EC52EFC01A688B788D08C98
:10143000CE0101960E945B1989819A810E94030561
:101440008D2D0E943304072D1C2D8017910708F461
:101450008C019801A401B5018D2D0E94B403F70100
:1014600086899789800F911F978B868BC8010F9073
:101470000F90DF91CF911F910F91FF90EF90DF9030
:10148000CF90BF90AF909F908F907F9008951F93C3
:10149000CF93DF9300D0CDB7DEB7FC01108DCE0126
:1014A00001960E945B1989819A810E94030560E27E
:1014B00070E0812F0E94101062E070E0812F0E9486
:1014C000EF0484FD18C062E070E0812F0E94EF04F9
:1014D00083FF08C048E162E070E0812F0E94A3040E
:1014E00080E010C0CE0101960E945B1989819A812B
:1014F0000E940305E1CF40E162E070E0812F0E948D
:10150000A30481E090E00F900F90DF91CF911F91A5
:101510000895DF92EF92FF920F931F93CF93DF9383
:1015200000D0CDB7DEB7FB01DC0157961C921E92AE
:1015300056972281211109C02381211106C02481DF
:10154000211103C025812223F9F041155105E1F055
:101550007A018F01FC01D08CCE0101960E945B19AB
:1015600089819A810E940305A8014E5F5F4F24E0A4
:1015700030E06CE070E08D2D0E946603B7018D2D88
:101580000E94780381E001C080E090E00F900F900E
:10159000DF91CF911F910F91FF90EF90DF90089511
:1015A000EF92FF921F93CF93DF9300D0CDB7DEB7BA
:1015B0007C01FC016481758181E20E942509182F5C
:1015C000883008F5CE0101960E945B1989819A81C5
:1015D0000E940305812F0E94FE04833189F462E09A
:1015E00070E0812F0E941010F70184819581E12F16
:1015F000F0E0EE0FFF1FEA53FD4F9183808303C09D
:10160000812F0E9479070F900F90DF91CF911F914A
:10161000FF90EF900895CF92DF92EF92FF920F9399
:101620001F93CF93DF936C017A018B01C0E0D0E070
:10163000CE15DF0581F0D8016D918D01D601ED91B8
:10164000FC910190F081E02DC6010995892B11F0E4
:101650002196EECF7E01C701DF91CF911F910F91AF
:10166000FF90EF90DF90CF900895CF93DF931F927C
:10167000CDB7DEB76983DC01ED91FC910280F38187
:10168000E02D41E050E0BE016F5F7F4F09950F9064
:10169000DF91CF91089583E08093E9008091F2007B
:1016A000882319F08AE38093E8000895FC0184857B
:1016B000958597FD0BC09FB7F89482E08093E90071
:1016C0008091F2009FBF90E0019608959FB7F89433
:1016D00082E08093E9008091F2009FBF90E008953E
:1016E000FC019485FB018485981303C081E0983048
:1016F00008F080E00895CF93DF931F92CDB7DEB757
:101700006983DC01ED91FC910280F381E02D41E0E1
:1017100050E0BE016F5F7F4F09950F90DF91CF9131
:1017200008958F929F92AF92BF92CF92DF92EF92E5
:10173000FF920F931F93CF93DF937C01EB016C011A
:1017400082E0C80ED11C4701E5E08E0E911C00E03E
:1017500010E0F60141916F0150E060E070E02AE096
:10176000CE010E94E4155C01E881F9810190F081CD
:10177000E02D6EE2CE0109958A0D9B1D080F191F01
:101780008C149D0431F7F701458150E060E070E072
:101790002AE0CE010E94E415800F911FDF91CF91C6
:1017A0001F910F91FF90EF90DF90CF90BF90AF907F
:1017B0009F908F9008958F929F92AF92BF92CF92F9
:1017C000DF92EF92FF920F931F93CF93DF936C0101
:1017D0007B018A0180910B01882309F45CC0809110
:1017E0008D02882309F457C08091800280FF05C0D4
:1017F0008091E00082608093E000E801B12C8AEFE4
:10180000A82E93E0892E2AE3922E209711F4BB2074
:10181000D9F10E94D31581110AC0AA94AA20D9F146
:1018200061E070E080E090E00E94A516EECF282FE6
:1018300030E0C217D3070CF48C2F9FB7F894809236
:10184000E9002091E80025FF1DC0282F30E0C21BD1
:10185000D30BF701815020F041914093F100FACF72
:10186000E20EF31EBB2019F09092E8000AC08091AE
:10187000E80085FD07C09092E800BB24B394209750
:1018800009F0B12C9FBFC1CF5D9884E680937F02A1
:101890001016110644F081E090E0F60193838283F4
:1018A00080E090E001C0C801DF91CF911F910F91BE
:1018B000FF90EF90DF90CF90BF90AF909F908F9070
:1018C00008950E94D31590E008950F931F93CF932E
:1018D000DF931F92CDB7DEB78C01FC01848595851F
:1018E00097FF0EC0CE0101960E94A515019719F42D
:1018F000898190E002C08FEF9FEFF8019587848780
:10190000F801848595850F90DF91CF911F910F91FC
:101910000895CF93DF931F92CDB7DEB7FC01848586
:10192000958597FD05C02FEF3FEF358724870BC0C6
:10193000CE0101960E94A515019719F4898190E0C6
:1019400002C08FEF9FEF0F90DF91CF9108950F931B
:101950001F93CF93DF9300D0CDB7DEB7FC01248572
:101960002830E0F48C01CE0101960E945B19898138
:101970009A810E94030522E030E0AE014F5F5F4F85
:1019800060E170E0F80184850E94A20309811A8158
:101990001027012710270E94020502C000E010E076
:1019A000C8010F900F90DF91CF911F910F91089573
:1019B0000F931F93CF93DF9300D0CDB7DEB7FC0119
:1019C00024852830E0F48C01CE0101960E945B1939
:1019D00089819A810E94030522E030E0AE014F5FC9
:1019E0005F4F64E070E0F80184850E94A2030981E2
:1019F0001A811027012710270E94020502C000E06B
:101A000010E0C8010F900F90DF91CF911F910F91BF
:101A10000895EF92FF920F931F93CF93DF9300D01F
:101A200000D0CDB7DEB78C017B01FB018485883007
:101A300050F08DEA91E0F801918380831282138245
:101A40001482158222C0CE0101960E945B19898101
:101A50009A810E94030524E030E0AE014F5F5F4FA2
:101A60006CE070E0F70184850E94A2030E940205E9
:101A70008DEA91E0F8019183808389819A81AB811D
:101A8000BC8182839383A483B583C8010F900F9098
:101A90000F900F90DF91CF911F910F91FF90EF90DA
:101AA0000895CF93DF93EC018C858830C8F40E94B1
:101AB000FD07843181F0882371F0883161F08C3129
:101AC00061F4E881F9810084F185E02DCE0109956A
:101AD00021E0892B19F420E001C021E0822F01C010
:101AE00080E0DF91CF910895CF92DF92EF92FF9245
:101AF000CF93DF93EC018C85883038F50E9479070D
:101B00000E9494116B017C018C850E94FD07882343
:101B1000D1F061E070E080E090E00E94A5160E94A4
:101B20009411AB01BC014C195D096E097F098D85CB
:101B30009E85A0E0B0E0481759076A077B0720F3AD
:101B40008C850E94930788E08C87DF91CF91FF906E
:101B5000EF90DF90CF900895CF93DF93EC018C85C9
:101B6000883060F40E94FD07873111F08C3131F428
:101B70008C850E9406058115984088F3DF91CF91EE
:101B80000895FC018485883010F40C94060580E0EB
:101B900090E00895CF93DF931F92CDB7DEB741E079
:101BA00050E0BE016F5F7F4FFC0184850E940206FA
:101BB000181619061CF4898190E002C08FEF9FEF80
:101BC0000F90DF91CF910895FC018485883010F447
:101BD0000C94020680E090E00895CF93DF93FC011F
:101BE0002485283018F08FEF9FEF0EC0EC01019094
:101BF000F081E02D0084F185E02D0995892B99F382
:101C00008C850E949A0590E0DF91CF910895FC01A8
:101C10008485883010F40C94D40580E090E0089519
:101C20000F931F93CF93DF93FC018485883068F472
:101C3000C52FD42F8F010E942E05009749F421E073
:101C400030E0F8013383228305C080E090E002C0D9
:101C50008D2F9C2FDF91CF911F910F910895CF92DF
:101C6000DF92EF92FF920F931F93CF93DF93CDB745
:101C7000DEB7AF970FB6F894DEBF0FBECDBF8C01B5
:101C80006B017A01CE0101960E9485158DEA91E0E3
:101C90009BA78AA71CA61DA61EA61FA6D8011C9638
:101CA0008C91883060F40E94FD07882321F0F801B0
:101CB00084850E94790788E0D8011C968C938091D6
:101CC0003C0390913D03A0913E03B0913F038EA34E
:101CD0009FA3A8A7B9A78B839C83AD83BE831886D7
:101CE0001F82AE01465D5F4FB601CE0101960E9494
:101CF000DF160097C1F0D801ED91FC910684F785BD
:101D0000E02D8DEA91E09DA38CA38CA59DA5AEA5A9
:101D1000BFA58EA39FA3A8A7B9A7A701BE016C5D0D
:101D20007F4FC8010995AF960FB6F894DEBF0FBE7E
:101D3000CDBFDF91CF911F910F91FF90EF90DF907A
:101D4000CF90089540917D0250917E0220917B02B8
:101D500030917C0242175307B4F49091E8009570DB
:101D6000E1F39091E80092FD19C08093F100809119
:101D70007D0290917E0201968F739927892B19F429
:101D80008EEF8093E80080917D0290917E02019613
:101D900090937E0280937D0281E0089580E0089513
:101DA000615030F02091F100FC0120830196F8CFC2
:101DB000289884E680938C0208956115710579F066
:101DC000FB0101900020E9F73197AF01461B570B4B
:101DD000DC01ED91FC910280F381E02D099480E01B
:101DE00090E008951F93CF93DF9300D01F92CDB75B
:101DF000DEB760E372E080E090E00E94A5161FB7B6
:101E0000F89480917A02811124C0EBE8F1E084918A
:101E1000EAEAF1E09491E82FF0E0EE0FFF1FE459B9
:101E2000FE4FA591B491EC91E92321F461E081E1A9
:101E30000E94411681E10E943C198CB580618CBDE5
:101E40008CB580648CBD8FE00E943C1980E10E94BB
:101E50003C1980917A028F5F80937A021FBF809134
:101E60000C01282F30E0F901E658FE4FE491F0E034
:101E7000EE0FFF1FE25AFE4F4591549150937802A6
:101E800040937702F901E756FE4FE491E093760222
:101E90000E943C190E94FF01CE0101960E945B192D
:101EA00089819A810E94030584E38093D6020E946F
:101EB000D604882379F188E00E9453030E94D2045B
:101EC000883041F580E10E9453030E94D2048031A2
:101ED00009F580E00E9453030E94D20481111AC0C8
:101EE0008FE190E00E94C1048330A1F480E48093EC
:101EF000790210E042E06EE170E0812F0E94A304BD
:101F000042E06FE170E0812F0E94A3041F5F183050
:101F100089F725C087E38093D6020E94D6048823E0
:101F200021F188E00E9453030E94D2048830E9F432
:101F300080E10E9453030E94D204182F8031A9F43B
:101F400080E00E9453030E94D20481110EC089E3F5
:101F500090E00E94C104843041F4109379020E9401
:101F6000020581E08093E3023AC083E38093D602C6
:101F70000E94D604882371F180E10E9453030E94DD
:101F8000D204803139F582E10E9453030E94D204C9
:101F9000823101F580E00E9453030E94D204811136
:101FA00019C084E08093790215E51B8341E050E07D
:101FB000BE016D5F7F4F8BE190E00E949602198316
:101FC00041E050E0BE016F5F7F4F8AE190E00E94E8
:101FD0009602C5CF1092D6020E94020580E00F90B3
:101FE0000F900F90DF91CF911F910895FC012081F8
:101FF0002EBD9B012150310941F051810DB407FEE6
:10200000FDCF4EB55EBD4193F5CF61507109FC0126
:10201000E60FF71F0DB407FEFDCF8EB58083089540
:10202000CF93C82F462F61E070E00E94A30461E0C7
:1020300070E08C2F0E94EF048111F9CFCF910895A9
:10204000AF92BF92CF92DF92EF92FF920F931F93C6
:10205000CF93DF9300D0CDB7DEB78C016B015A016F
:10206000FC018485883058F40E94FD07882321F004
:10207000F80184850E94790788E0F8018487F601D9
:1020800082819381A481B5810097A105B10509F4EE
:102090005DC08F3F9F4FAF4FBF4F09F457C060E007
:1020A00070E081E20E942509F82EF8018487F7E0AC
:1020B000F81708F44BC0CE0101960E945B19898184
:1020C0009A810E940305A6014E5F5F4F24E030E035
:1020D0006CE070E08F2D0E946603B5018F2D0E9489
:1020E000780364E070E08F2D0E9410100E940205BA
:1020F0000E9494116B017C01F80184850E94FD0708
:10210000873139F18C3129F1882301F10E94941132
:10211000AB01BC014C195D096E097F09F801858589
:102120009685A0E0B0E084179507A607B70738F0BA
:1021300061E070E080E090E00E94A516DDCFF8013C
:1021400084850E94930788E0F801848780E090E00E
:1021500002C081E090E00F900F90DF91CF911F912E
:102160000F91FF90EF90DF90CF90BF90AF900895C8
:102170000E94DE1E0F931F93CF93DF93EC018881A3
:102180009981009729F02A813B812617370788F427
:102190008B016F5F7F4F0E94181E009761F099833B
:1021A00088831B830A832C813D81232B11F4FC013E
:1021B000108281E001C080E0DF91CF911F910F91EB
:1021C0000895DF92EF92FF920F931F93CF93DF93C7
:1021D000D82EF92EE42E062F10E0C8010196880FA4
:1021E0000E94A20E83E00E94A20ECD2DDF2D0C0FC7
:1021F0001D1FC017D10789F0E7FE03C0FE018491BF
:1022000001C088810E94A20EF82E80E00E94A20EDA
:102210008F2121968111EDCF01C081E0DF91CF9117
:102220001F910F91FF90EF90DF900895DF92EF9252
:10223000FF920F931F93CF93DF93D82E8A017B01D8
:10224000E40EF51EEB01CE15DF0571F0D7FE03C0DD
:10225000FE01849101C088810E94A20E2196811105
:10226000F2CF8FEF9FEF01C0C801DF91CF911F9197
:102270000F91FF90EF90DF9008950F931F93CF93EE
:10228000DF931F92CDB7DEB782E0898342E450E04E
:102290006AEC70E080E80E9416110E942D16DC01A5
:1022A00012960D911C9113970115110589F0D80113
:1022B000ED91FC910280F381E02DBE016F5F7F4FB5
:1022C000C801099597FD04C0F80100851185ECCF80
:1022D00089810F90DF91CF911F910F9108953FB7A2
:1022E000F8948091880290918902A0918A02B0911D
:1022F0008B0226B5A89B05C02F3F19F00196A11DA2
:10230000B11D3FBFBA2FA92F982F8827820F911D8B
:10231000A11DB11DBC01CD0142E0660F771F881FD2
:10232000991F4A95D1F708952FB7F89460918402C8
:102330007091850280918602909187022FBF089547
:102340001F920F920FB60F9211242F933F938F93EA
:102350009F93AF93BF938091840290918502A09147
:102360008602B09187023091830223E0230F2D373C
:1023700020F40196A11DB11D05C026E8230F029689
:10238000A11DB11D20938302809384029093850246
:10239000A0938602B093870280918802909189026F
:1023A000A0918A02B0918B020196A11DB11D80936C
:1023B000880290938902A0938A02B0938B02BF9106
:1023C000AF919F918F913F912F910F900FBE0F90E2
:1023D0001F9018951F920F920FB60F9211248F9392
:1023E0009F938091E1009091E100937F9093E100B1
:1023F00083FF0FC01092E90091E09093EB001092E0
:10240000EC0092E39093ED0010928D0298E090938F
:10241000F00082FF20C093E09093E9009091F200D9
:10242000992319F09AE39093E80090917F02992301
:1024300039F090917F02915090937F02992389F116
:1024400090918C02992339F090918C029150909345
:102450008C02992341F184FF10C08091E2008E7EAE
:1024600081608093E2008091E1008F7E8093E100A3
:10247000809180028E7E806111C080FF16C08091A5
:10248000E2008E7E80618093E2008091E1008E7E8A
:102490008093E100809180028E7E81608093800233
:1024A00004C05D9ACDCF289AD6CF9F918F910F907F
:1024B0000FBE0F901F9018951F920F920FB60F929C
:1024C0001124CF92DF92EF92FF920F931F932F93DD
:1024D0003F934F935F936F937F938F939F93AF93AC
:1024E000BF93EF93FF93CF93DF93CDB7DEB76C9796
:1024F000DEBFCDBF1092E9008091E80083FFFBC1F1
:1025000068E0CE0145960E94D00E82EF8093E800ED
:102510008D8987FF05C09091E80090FFFCCF03C034
:102520009EEF9093E800982F907609F0C6C09E89A0
:102530004F89588D2F89F88C91110CC0803829F45F
:10254000809182028093F10002C01092F1001092FB
:10255000F10045C1913051F4811141C14130510523
:1025600009F03DC1809182028D7F0BC0933061F4F0
:10257000811135C14130510509F031C1809182028C
:102580008260809382022BC1953049F48091E800EB
:1025900080FFFCCF822F80688093E30020C19630BB
:1025A00009F05EC00B8D1C8D22E01092E9001092A4
:1025B0007E0210927D02F21232C010927C021092C2
:1025C0007B020E943D1199E0BE016F5F7F4FDB01EE
:1025D000E92F1D92EA95E9F79983FA8291E09E83AB
:1025E00090EA98879AEF998720917D0230917E0238
:1025F000275F3F4F3C832B838D831092E90010921D
:102600007E0210927D0210937C0200937B0249E0CF
:1026100050E080E00E9416110E943D11E0C010932E
:102620007C0200937B020E942D16DC0112960D9114
:102630001C9113970115110509F4BBC0D801ED9148
:10264000FC910480F581E02DBE016B5E7F4FC801D7
:102650000995009709F0C7C0F80100851185EACFF8
:10266000973009F445C1983021F481E08093F1005E
:10267000B6C0993009F0B3C0837009F039C1EAE4FB
:10268000F1E081E031E096E32081211109C08EE77D
:102690008093EA001092EA008F8980938D029FC098
:1026A0008093E9003093EB0021912093EC0090930C
:1026B000ED008F5F873041F7EACF8B8D9C8D1092B4
:1026C000E90010927E0210927D0290937C0280932A
:1026D0007B02898D811153C08E899D89913A49F47D
:1026E000813209F005C147E050E064E071E080E02C
:1026F000BBC0913209F0FCC0833269F48F89988D98
:10270000A0E0B0E08093000190930101A09302014A
:10271000B093030164C0803269F48091E80082FFC5
:10272000FCCF67E084E091E00E94D00E8BEF8093B5
:10273000E80055C0823209F052C08F8980930B01A6
:10274000EEEFFFE7859194918B3F9C4D19F0E0E00F
:10275000F8E002C0EEEFFAE08091040190910501EB
:10276000A0910601B0910701803B9440A105B105FD
:1027700009F09EC080910B0180FF79C099C00E9432
:102780002D16FC01028113810115110509F4B0C059
:10279000D801ED91FC910190F081E02DBE016B5EBE
:1027A0007F4FC801099581111AC0F8010085118574
:1027B000EBCFF1E0FF1609F44EC0F3E0FF1298C032
:1027C0008F89882309F44AC0823089F440E860E1A7
:1027D0008EE291E00E94E110882309F489C08EEF17
:1027E0008093E80088C018161906CCF381C08130A8
:1027F00029F440E86BE082E291E0ECCF833009F00D
:1028000077C00E942D16DC011296ED90FC90139774
:102810008E010F5F1F4F6801E114F10479F0D701B9
:10282000ED91FC910680F781E02DB801C701099573
:10283000080F111DF701E084F184EECFD8011C923E
:10284000F60101900020E9F73197BF016C197D096D
:1028500040E0C601BFCF60E171E002C06CE071E012
:10286000FB01449150E080E80E941611B8CFEE3F82
:102870002AE0F20751F0808191818737A7E79A0714
:1028800021F09093FF0A8093FE0A87E797E79183F0
:10289000808380916000809381029BE088E10FB685
:1028A000F894A895809360000FBE9093600097CF36
:1028B000808191818737974709F091CFA8958091C2
:1028C0006000886180936000809181028093600045
:1028D000EE3FBAE0FB0739F08091FE0A9091FF0AC3
:1028E000918380837CCF1092FF0A1092FE0A77CFEB
:1028F00081E28093EB006C960FB6F894DEBF0FBEBA
:10290000CDBFDF91CF91FF91EF91BF91AF919F919B
:102910008F917F916F915F914F913F912F911F9177
:102920000F91FF90EF90DF90CF900F900FBE0F9020
:102930001F9018958F929F92AF92BF92CF92DF9285
:10294000EF92FF920F931F93CF93DF93CDB7DEB734
:1029500060970FB6F894DEBF0FBECDBF7C0190919B
:10296000D602992309F4BDC0933311F008E001C0E9
:1029700004E05B01CE0101960E945B1989819A8176
:102980000E9403059E012F5F3F4F6901490110E03E
:10299000812F0E94FE04F40181934F018823C9F026
:1029A0001F5F0113F5CF10E0F60181916F018D31AA
:1029B00059F0883149F08A51823030F01F5F01139D
:1029C000F3CF0E9402058DC060E170E0812F0E946C
:1029D0001010C12ED12CF601EE0FFF1FEA53FD4F50
:1029E0001182108283EE93E00197F1F742E860E0F4
:1029F00070E0812F0E94A3044FEF62E070E0812F0E
:102A00000E94A304A114B10411F0B50113C0809178
:102A10000D0190910E0101968115F0EC9F0710F4C5
:102A200080E090EC90930E0180930D0160910D0178
:102A300070910E01812F0E948D0386E0E5E5F1E0A3
:102A4000DE01199601900D928A95E1F7F7018381D5
:102A50008F778C8784818D8785818E87A7014E5FD4
:102A60005F4F24E030E06CE070E0812F0E9466034D
:102A7000B501812F0E94780326E030E0AE01475F68
:102A80005F4F66E070E0812F0E94660361E070E0B6
:102A9000812F0E94101027E02C9DC0012D9D900DCC
:102AA00011249C0122573D4F7901F90111821082B6
:102AB00022E030E0AE01415F5F4F68E270E0812FBD
:102AC0000E94A2038F859889982789279827F70164
:102AD000938382831682158214820E940205812FBD
:102AE00001C088E060960FB6F894DEBF0FBECDBF80
:102AF000DF91CF911F910F91FF90EF90DF90CF90DA
:102B0000BF90AF909F908F900895FC018DEA91E067
:102B10009183808312821382148215821386128617
:102B200048EE53E060E070E044875587668777871A
:102B30002FE531E031872087978B868B108E118EA1
:102B4000128E138E88E080A3089520918D022111AA
:102B500003C08FEF9FEF08955FB7F89422E02093B2
:102B6000E9002091F20030E01216130614F421E07F
:102B700030E0422FFC0184E6415038F028988093E1
:102B80008C029091F1009193F7CF2115310521F03E
:102B90008091F200882319F05FBFC90108958BE688
:102BA0008093E800F9CF2FB7F89483E08093E90091
:102BB0009091E800892F807295FF04C09091F200F7
:102BC00080E4891B2FBF08958F929F92AF92BF928E
:102BD000EF92FF920F931F93CF93DF93CDB7DEB7A2
:102BE000A1970FB6F894DEBF0FBECDBF7C01FA01EE
:102BF000CB0119A2223008F42AE08E010F5D1F4F8D
:102C0000822E912CA12CB12CBF01A50194010E9410
:102C1000CF1CF901CA01015011096A3014F4605D3A
:102C200001C0695CD8016C93232B242B252B61F701
:102C3000B801C7010E94DD0EA1960FB6F894DEBF61
:102C40000FBECDBFDF91CF911F910F91FF90EF90FD
:102C5000BF90AF909F908F9008958091DB0281117B
:102C60000DC082E08093D70284E08093D802109256
:102C7000DA021092D90281E08093DB0287ED92E0C4
:102C80000895362F90E0FC01E15CFE4F4491FC0179
:102C9000E756FE4F2491FC01E658FE4F84918823AD
:102CA00009F452C04423E1F150E0FA013197EF30CA
:102CB000F105B0F5EA5AFF4F0C94F11C9091800099
:102CC0009F7707C0909180009F7D03C09091800006
:102CD000977F9093800024C094B59F7702C094B5ED
:102CE0009F7D94BD1DC0909190009F7707C09091EB
:102CF00090009F7D03C090919000977F90939000EB
:102D00000FC09091C0009F7703C09091C0009F7D3D
:102D10009093C00005C09091C200977F9093C2002D
:102D2000E82FF0E0EE0FFF1FE25AFE4FA591B4919D
:102D30009FB7F894311104C08C912095282302C0CC
:102D4000EC912E2B2C939FBF08958F929F92AF9260
:102D5000BF92CF92DF92EF92FF926B017C010E94B3
:102D60006F114B015C01C114D104E104F104F1F0D5
:102D70000E946F11DC01CB0188199909AA09BB09CE
:102D8000883E9340A105B10570F321E0C21AD10835
:102D9000E108F10888EE880E83E0981EA11CB11CA2
:102DA000C114D104E104F10419F7DDCFFF90EF90D5
:102DB000DF90CF90BF90AF909F908F9008954F92EB
:102DC0005F926F927F928F929F92AF92BF92CF92BB
:102DD000DF92EF92FF920F931F93CF93DF93CDB7C4
:102DE000DEB763970FB6F894DEBF0FBECDBF7C0190
:102DF0005B013A01FB0120E080E090E06AE0319164
:102E0000332309F140ED430F4A3080F4689FA0015D
:102E1000699F500D1124CA01C097830F911D37FD82
:102E20009A958F3F910559F350F313C03E3289F4C0
:102E3000233079F0D301A20FB11D12968C932F5F2E
:102E400080E090E0DCCF233021F4F301858381E042
:102E500021C0F701428153816481758180913603DD
:102E600090913703A0913803B0913903481759075F
:102E70006A077B0709F491C10E9494118701085FDA
:102E80001F4F6F7077277C5FC8010E94E209813075
:102E900019F080E090E0D9C18DEA91E09A838983AE
:102EA000F70182819381A481B5818B839C83AD835B
:102EB000BE8345E350E0BE016F5F7F4FC8010E94B3
:102EC000890A892B19F4C12CD12C62C10E9494115A
:102ED000F7017783668342E050E0B7016A5F7F4F76
:102EE000C8010E94000A81E090E09A83898342E051
:102EF00050E0BE016F5F7F4FC8010E94000A80E072
:102F000091E09A83898342E050E0BE016F5F7F4F7A
:102F1000C8010E94000A1A82198242E050E0BE01F4
:102F20006F5F7F4FC8010E94000A42E050E0BE017F
:102F30006F5F7F4FC8010E94000A42E050E0BE016F
:102F40006F5F7F4FC8010E94000A4501F501808133
:102F5000882301F164015601F60181912F01882334
:102F600021F08E3211F06201F6CFC818D9081C1476
:102F70001D0474F4CD8641E050E0BE01635F7F4FD5
:102F8000C8010E94000AA601B401C8010E94000AFB
:102F90004201DCCF1D8641E050E0BE01635F7F4F00
:102FA000C8010E94000AC12CDD24D394DA82C982B0
:102FB00042E050E0BE016F5F7F4FC8010E94000AEF
:102FC000DA82C98242E050E0BE016F5F7F4FC801E4
:102FD0000E94000AC8010E94470A892B09F473CF96
:102FE000E3E0AE2EB12C230122E0420E511C0E94E0
:102FF00094113B014C01C8010E941D0718161906C7
:10300000A4F00E949411DC01CB0186199709A8094C
:10301000B90989389341A105B105D0F462E370E0A4
:1030200080E090E00E94A516E6CFF701428153812F
:1030300064817581808D918DA28DB38D481759075C
:103040006A077B0749F4848D958DC59729F409C0DB
:10305000CC24CA94DC2C93C05EEFC52EDD24DA9418
:103060008EC0F70181A192A10C970CF4E9C04CE04D
:1030700050E0BE016F5F7F4FC8010E94D5068B8173
:103080009C819827892798279A8B898BF7014681FD
:10309000578129813A814217530709F0C2C097FF2F
:1030A000C0C08F709270892B09F0C0C06F80788487
:1030B0007624672476246114710409F4BCC0C12C01
:1030C000D12C8D819E81982789279827C816D906EB
:1030D00008F466C0812C912C41E050E0BE016D5E89
:1030E0007F4FC8010E94D5064B89842F807C09F050
:1030F00076C0442331F050E060E070E0C8010E94E7
:10310000D5068B898111E8CF42E050E0BE01615FB6
:103110007F4FC8010E94D50642E050E0BE01635FC8
:103120007F4FC8010E94D50644E050E060E070E0A7
:10313000C8010E94D50642E050E0BE016F5E7F4F9D
:10314000C8010E94D5068F85988949895A898115B9
:10315000914009F04DC0CD84DE84DC24CD24DC24F4
:1031600081E0C816D10409F043C04115544009F06C
:1031700053C044E050E0B201C8010E94D50621E0EE
:10318000A21AB10829F0FFEFCF16DF0609F42FCFFE
:10319000C8010E94EF07C60158C08EEF9FEF55C0CF
:1031A00041E050E0BE01635F7F4FC8010E94D50639
:1031B0004D85442331F050E060E070E0C8010E948A
:1031C000D5068D858111ECCF44E050E060E070E0E1
:1031D000C8010E94D506FFEFCF1ADF0A72CF41E087
:1031E00050E060E070E0C8010E94D5061B8A89CFDC
:1031F00054274527542760E070E0C8010E94D50697
:10320000FFEF8F1A9F0A6814790409F065CF96EFD3
:10321000C92EDD24DA94B3CF77EFC72EDD24DA94FC
:10322000AECF4CEFC42EDD24DA94A9CF3BEFC32EF2
:10323000DD24DA94A4CF2AEFC22EDD24DA949FCFC6
:103240008DEFC82EDD24DA949ACF63960FB6F894EA
:10325000DEBF0FBECDBFDF91CF911F910F91FF90C9
:10326000EF90DF90CF90BF90AF909F908F907F9026
:103270006F905F904F90089590E0FC01E756FE4FED
:103280002491FC01E658FE4F8491882399F090E048
:10329000880F991FFC01E459FE4FA591B491FC01E0
:1032A000E25AFE4F859194918FB7F894EC91E22BFE
:1032B000EC938FBF089520E5FC01208321E021835A
:1032C0000895CF93DF93BC0184EE92E00E94DD0E5F
:1032D000EC016DE272E084EE92E00E94DD0E8C0F54
:1032E0009D1FDF91CF910895CF92DF92EF92FF92D1
:1032F000CF93DF93CDB7DEB7C454D1090FB6F8949E
:10330000DEBF0FBECDBFFC01428153816481758158
:1033100023964CAF5DAF6EAF7FAF239781E02396CE
:103320008FAF23972396CCACDDACEEACFFAC2397EC
:10333000CBAADCAAEDAAFEAA4DA75EA76FA778AB21
:1033400088ABCDA4DEA4EFA4F8A8CFA2D8A6E9A6A6
:10335000FAA68EABCBA8DCA8EDA8FEA8C9A2DAA27B
:10336000EBA2FCA22DEA31E03C8B2B8B9FEF9D8BD7
:103370009E8B9F8B188E3E872D878AA7CFA0D8A4BF
:10338000E9A4FAA4CF86D88AE98AFA8A8CA389A10B
:103390009AA1ABA1BCA189879A87AB87BC873A83E6
:1033A00029834B835C836D837E838091E302882332
:1033B00009F43FC0CE018D5B9F4F0E945B1925969B
:1033C0008EAD9FAD25970E94030546E050E06FE06B
:1033D00071E089E090E00E94960244E050E0BE0176
:1033E0006D5F7F4F8FE090E00E94960244E050E0D6
:1033F000BE01615F7F4F81E090E00E94960244E051
:1034000050E0BE016B5E7F4F85E090E00E94960227
:103410000E94020581E08C8789859A85AB85BC85F1
:1034200080933C0390933D03A0933E03B0933F03EE
:1034300004C00E94F20E8111BDCFCC5BDF4F0FB6EE
:10344000F894DEBF0FBECDBFDF91CF91FF90EF901C
:10345000DF90CF900895CF93DF93CDB7DEB7679716
:103460000FB6F894DEBF0FBECDBF789484B58260EE
:1034700084BD84B5816084BD85B5826085BD85B518
:10348000816085BD80916E00816080936E00109296
:103490008100809181008260809381008091810011
:1034A00081608093810080918000816080938000A2
:1034B0008091910082608093910080919100816061
:1034C0008093910080919000816080939000809122
:1034D000C10084608093C1008091C10082608093AC
:1034E000C1008091C10081608093C1008091C300C0
:1034F00081608093C3008091C00082608093C0008F
:103500008091C20081608093C20080917A008460C3
:1035100080937A0080917A00826080937A00809113
:103520007A00816080937A0080917A00806880932D
:103530007A0010928D021092820210928002809185
:10354000D70081608093D70080EA8093D80089B546
:10355000806189BD89B5826089BD09B400FEFDCF57
:1035600061E070E080E090E00E94A5168091D800B4
:103570008F7C80618093D8008091E000807F809371
:10358000E0008091E1008E7E8093E1008DE08093E9
:10359000E200559A209A8AE080930C018FEF9FEF0A
:1035A0009093F1028093F00281ED91E00E94611905
:1035B0008DEA91E09A838983809148039091490331
:1035C000A0914A03B0914B038B839C83AD83BE8350
:1035D000CE0101960E947419E091D602E353E530C2
:1035E00030F4F0E0E05BFE4F808181110BC087ED8D
:1035F00091E00E94611961E070E080E090E00E943B
:10360000A516F9CF8091E302882339F08091D60284
:10361000843341F08733C1F028C00E94F20E81113B
:10362000F5CF23C0CE0101960E945B1989819A8152
:103630000E94030585E390E00E94C104182F0E94B8
:10364000020515FFF1C011C0CE0101960E945B1961
:1036500089819A810E9403058EE290E00E94C10454
:10366000182F0E94020510FFDFC080E493E00E9443
:10367000D00A6DE172E084EE92E00E94DD0E8DEAE8
:1036800091E09A8389831B821C821D821E82CE0157
:1036900040960E945B19888999890E94030544E03D
:1036A00050E0BE016D5F7F4F8FE090E00E94090205
:1036B0000E94020564EE72E0CE0101960E94910B19
:1036C0006DE272E084EE92E00E94DD0E12E0812F46
:1036D0000E943C191F5F1A30D1F780E0C82E80E0AD
:1036E000D82E60E473E0CE0101960E9442088D85D9
:1036F000883008F092C080E392E00E946119198A34
:10370000188A1B8A1A8A1D8A1C8A60E070E0CE0122
:1037100040960E94BA102889398981110DC021155F
:10372000310519F0C9010E948F1D198A188A1D8A56
:103730001C8A1B8A1A8A07C01D8A1C8A6FE272E0E3
:10374000C9010E94F31ECE0101960E94510D8823EB
:1037500041F1CE0101960E94070E892BA1F3CE0103
:1037600001960E94CA0D8A30E1F08E8B1F8AEC8888
:10377000FD888FEFE81AF80AB701CE0140960E9443
:10378000BA10882331F3288939898C899D89BE0133
:103790006A5E7F4F820F931F0E94F31EFD8AEC8AA0
:1037A000D8CF4C895D896889798984EE92E00E943E
:1037B000DB0B6DE272E084EE92E00E94DD0E19E018
:1037C000E12CF12C8C899D89E816F90648F488894A
:1037D0009989009729F0FC01EE0DFF1D808101C041
:1037E00080E0082E000C990B8133910511F461E003
:1037F00003C0C09721F460E0812F0E9441168FEF33
:10380000E81AF80A11501130E9F681E492E00E94BA
:103810006119888999890E948F1DC114D10409F406
:1038200060CF0E9400005DCF84E592E00E946119A4
:103830001CCFE4EEF2E01382128288EE93E0A0E067
:10384000B0E084839583A683B7838BE991E091836D
:1038500080838FEF9FEF95878487ECE4F3E08DEA18
:1038600091E0918380831282138214821582E4E3B3
:10387000F3E0918380831282138214821582E2E541
:10388000F3E0918380831282138214821582E8E52B
:10389000F3E0918380831282138214821582EEE515
:1038A000F3E0918380831282138214821582E4E60E
:1038B000F3E0918380831282138214821582EAE6F8
:1038C000F3E0918380831282138214821582E0E7F1
:1038D000F3E0918380831282138214821582EAE3DB
:1038E000F3E0918380831282138214821582E6E7CB
:1038F000F3E0918380831282138214821582E6E4BE
:10390000F3E09183808380EC828388EA838381E083
:10391000848387E38583E0E4F3E01382128289EBFA
:1039200091E09183808380E596E095838483089578
:103930002F923F924F925F926F927F928F929F92BF
:10394000AF92BF92CF92DF92EF92FF920F931F93AD
:10395000CF93DF93CDB7DEB7CA1BDB0B0FB6F8945E
:10396000DEBF0FBECDBF09942A88398848885F849E
:103970006E847D848C849B84AA84B984C884DF800F
:10398000EE80FD800C811B81AA81B981CE0FD11DF3
:103990000FB6F894DEBF0FBECDBFED010895A1E2D2
:1039A0001A2EAA1BBB1BFD010DC0AA1FBB1FEE1FB9
:1039B000FF1FA217B307E407F50720F0A21BB30B04
:1039C000E40BF50B661F771F881F991F1A9469F780
:1039D00060957095809590959B01AC01BD01CF01DC
:1039E0000895EE0FFF1F0590F491E02D09940F93B9
:1039F0001F93CF93DF938230910510F482E090E023
:103A0000E0917E03F0917F0320E030E0A0E0B0E0A1
:103A1000309719F14081518102811381481759076C
:103A2000C8F08417950769F4109731F012960C933B
:103A3000129713961C9327C000937E0310937F0365
:103A400022C02115310519F04217530718F49A01C5
:103A5000BD01EF01DF01F801DBCF21153105F9F0E0
:103A6000281B390B2430310580F48A819B81611534
:103A7000710521F0FB019383828304C090937F033F
:103A800080937E03FE01329644C0FE01E20FF31FD5
:103A90008193919322503109398328833AC0209130
:103AA0007C0330917D03232B41F420911701309149
:103AB000180130937D0320937C03209115013091F0
:103AC00016012115310541F42DB73EB7409119017A
:103AD00050911A01241B350BE0917C03F0917D037A
:103AE000E217F307A0F42E1B3F0B2817390778F0D5
:103AF000AC014E5F5F4F2417350748F04E0F5F1F34
:103B000050937D0340937C038193919302C0E0E046
:103B1000F0E0CF01DF91CF911F910F910895CF93E6
:103B2000DF93009709F481C0FC013297138212825F
:103B3000A0917E03B0917F03109781F420813181A1
:103B4000820F931F20917C0330917D032817390742
:103B500051F5F0937D03E0937C0367C0ED0120E015
:103B600030E0CE17DF0740F44A815B819E014115AA
:103B70005105F1F0EA01F5CFD383C2834081518131
:103B8000840F951FC817D90759F488819981840F2C
:103B9000951F0296918380838A819B819383828380
:103BA0002115310529F4F0937F03E0937E033DC096
:103BB000E901FB83EA8349915991C40FD51FEC17A2
:103BC000FD0761F480819181840F951F0296E901C0
:103BD00099838883828193819B838A83E0E0F0E0EC
:103BE00012968D919C911397009719F0FD01DC01BD
:103BF000F7CF8D919C9111979D012E5F3F4F820FC2
:103C0000931F20917C0330917D032817390769F4B5
:103C1000309729F410927F0310927E0302C0138222
:103C20001282B0937D03A0937C03DF91CF9108951E
:103C3000A0E0B0E0EEE1FEE10C949C1CEC010097EA
:103C400021F4CB010E94F71CB4C0FC01E60FF71F62
:103C50009C0122503109E217F30708F4A8C0D901EA
:103C60000D911C91119706171707B0F0053011053B
:103C700008F49BC0C80104978617970708F495C0FD
:103C800002501109061B170B019311936D937C933E
:103C9000CF010E948F1D89C05B01A01AB10A4C019F
:103CA000800E911EA0917E03B0917F03612C712C38
:103CB000E12CF12C109709F446C08D919C9111973D
:103CC000A815B905B1F56C0142E0C40ED11CCA14A7
:103CD000DB0478F14C018A189B08640142E0C40EB1
:103CE000D11C1296BC9012971396AC91B5E0CB16EE
:103CF000D10440F0B282A38391828082D9016D9376
:103D00007C9309C00E5F1F4F800F911FF9019183B3
:103D10008083EB2DFA2FE114F10431F0D7011396D3
:103D2000FC93EE93129741C0F0937F03E0937E03E0
:103D30003CC06816790608F43C017D0112960D908E
:103D4000BC91A02DB7CF80917C0390917D03881604
:103D50009906E1F466167706C8F4809115019091F2
:103D60001601009741F48DB79EB74091190150910B
:103D70001A01841B950BE817F907C8F4F0937D032B
:103D8000E0937C03F901718360830FC0CB010E9433
:103D9000F71C7C01009759F0A801BE010E94E31EA8
:103DA000CE010E948F1DC70104C0CE0102C080E079
:103DB00090E0CDB7DEB7EEE00C94B81C81E090E067
:103DC000F8940C94FA1EFB01DC0102C001900D92E4
:103DD00041505040D8F70895DC0101C06D93415027
:103DE0005040E0F70895FB01DC0101900D920020A6
:083DF000E1F70895F894FFCFFC
:103DF800FFFFFFFF00E10000000000000A00C0898B
:103E0800F04FB02C65000080032000000000007B0C
:103E18000B100EC10DAC0D070ECA0DED0D20102FA5
:103E28000EE40D740D510D6B0168016601700B5C99
:103E380001D80C090DA70C580100C18081000000B1
:103E4800010200000301005E0000000000000028DD
:103E580001000A950127013E01F406C505E209ADF6
:103E680007EF07890A9801470A1D07D5068B017BCA
:103E7800017701730100000000B8100B0B95019445
:103E880001B810B810B81000000000350BDB0B614A
:103E98000C4B0B560B890C650C00000000910B00B5
:103EA800000000B810000000004201CB0895019402
:103EB80001D00A150800000000B8100B0B950194FA
:103EC80001626567696E0045746865726E65742085
:103ED800736869656C6420776173206E6F742066FF
:103EE8006F756E642E2020536F7272792C20636177
:103EF8006E27742072756E20776974686F757420E8
:103F080068617264776172652E203A280053657281
:103F180076657220616464726573733A000D0A00F5
:103F2800436C69656E7420636F6E6E656374656457
:103F380000436C69656E74206469736F6E6E6563A7
:103F48007465640045746865726E657420636162A7
:103F58006C65206973206E6F7420636F6E6E656385
:063F68007465642E0000E8
:00000001FF
